:020000040000FA
:0800000000008A110A124829D0
:08000800F000030EF1000A08EC
:10001000F200831203138C1E12288A110A12622026
:100020008A110A12831203130C1C1C280C108A114B
:100030000A1276218A110A12831203130C1F262832
:100040000C138A110A120E218A110A128312031349
:100050000C1E2F288A110A129D208A110A12710E75
:0C0060008300F00E700E72088A00090088
:04006C000134003427
:0C00700085340134203400340F34003497
:04007C0083160313D1
:1000800080308700831603131930990083160313F9
:1000900024309800831203139030980008008312D4
:1000A00003138313203084000008003A03195E28EC
:1000B0000C1E582800089900840A542883132730FE
:1000C00084000800831203131A08F8007808413AE4
:1000D00003197E287808613A03197E287808523A75
:1000E00003198A287808723A03198A287808443A4A
:1000F000031993287808643A031993284130F700CC
:10010000831203131014831603130C1483120313A6
:10011000F6019C285230F700831203131010831647
:1001200003130C109C287708523A031D9C288A114F
:100130000A122C218A110A12080083130008003ABF
:100140000319A8288312031300089900840AAF2812
:10015000831603139812831603130C128C160800CF
:100160008A110A12362083120313AF003720B00021
:10017000831203132F083004031DBF2804298A119A
:100180000A12382083120313B1003920B2008A11F9
:100190000A123A2083120313B3003B20B4008A11E1
:1001A0000A123C2083120313B5003D20B6008312CF
:1001B0000313350836040319FD288312031333088B
:1001C0008400E62832088A0031088200E220831386
:1001D000B408031D8317800083120313B10A0318A8
:1001E000B20A83120313B30A0318B40A8312031367
:1001F000B5080319B603B503D72883120313AF0854
:0A0200000319B003AF03B82808008B
:06020A00831603130E3001
:100210009F008312031341309F0008003321831392
:10022000273084007408800029308400750880001D
:1002300027308400831603138C1283160313981639
:10024000831603130C160800831203131F151F19BE
:1002500027291E08F3000800831203131F158316B5
:1002600003130C1708002F30F400F500831203135A
:100270001E08F300F40AF3003330730203183A291E
:100280007308F50AF3000530F3020318412908004A
:100290008A110A12B0208A110A123E208A110A120B
:1002A00005218A110A1271218A110A124F20831620
:1002B00003139812831203130C100C1383160313E9
:1002C0000C12831603130C13831203130B178316DC
:1002D00003138C16831203138B1700008A110A1262
:0202E0006D2986
:0E02E2008312031330309000F60183120313D1
:1002F0007608013A03197E29F60A8429F6018A1143
:0A0300000A122C218A110A120800CB
:06030A0054344534533465
:1003100054340D340A34003458342C3458342034D6
:0803200056340D340A34003498
:02400E00393F38
:00000001FF
