:020000040000FA
:0800000000008A110A123429E4
:08000800F000030EF1000A08EC
:10001000F200831203138C1E12288A110A12622026
:100020008A110A12831203130C1C1C280C108A114B
:100030000A1262218A110A12831203130C1F262846
:100040000C138A110A120E218A110A128312031349
:100050000C1E2F288A110A129D208A110A12710E75
:0C0060008300F00E700E72088A00090088
:04006C000134003427
:0C00700071340134203400340F340034AB
:04007C0083160313D1
:1000800080308700831603131930990083160313F9
:1000900024309800831203139030980008008312D4
:1000A00003138313203084000008003A03195E28EC
:1000B0000C1E582800089900840A542883132730FE
:1000C00084000800831203131A08F6007608413AE8
:1000D00003197E287608613A03197E287608523A79
:1000E00003198A287608723A03198A287608443A4E
:1000F000031993287608643A031993284130F500D0
:10010000831203131014831603130C1483120313A6
:10011000F4019C285230F50083120313101083164B
:1001200003130C109C287508523A031D9C288A1151
:100130000A1229218A110A12080083130008003AC2
:100140000319A8288312031300089900840AAF2812
:10015000831603139812831603130C128C160800CF
:100160008A110A12362083120313AF003720B00021
:10017000831203132F083004031DBF2804298A119A
:100180000A12382083120313B1003920B2008A11F9
:100190000A123A2083120313B3003B20B4008A11E1
:1001A0000A123C2083120313B5003D20B6008312CF
:1001B0000313350836040319FD288312031333088B
:1001C0008400E62832088A0031088200E220831386
:1001D000B408031D8317800083120313B10A0318A8
:1001E000B20A83120313B30A0318B40A8312031367
:1001F000B5080319B603B503D72883120313AF0854
:0A0200000319B003AF03B82808008B
:06020A00831603130E3001
:100210009F008312031341309F0008008A110A12C5
:1002200030218A110A123221831327308400831669
:1002300003138C12831603139816831603130C16DC
:100240000800831203131F151F1924291E08F30029
:100250000800831203131F15831603130C170800DD
:08026000000008000000080086
:080268008A110A12B0208A116C
:100270000A123E208A110A1205218A110A125D21F2
:100280008A110A124F208316031398128312031344
:100290000C100C13831603130C12831603130C1388
:1002A000831203130B17831603138C168312031385
:0A02B0008B1700008A110A12592969
:0602BA0083120313303033
:1002C0009000F401831203137408013A03196A2998
:1002D000F40A7029F4018A110A1229218A110A12DA
:0202E000080014
:0E02E20054344534533454340D340A3400344B
:1002F00058342C345834203456340D340A340034F5
:02400E00393F38
:00000001FF
