:020000040000FA
:040000008A01132836
:040004000034003490
:08000800F000030EF1000000FE
:1000100000000000831203130C1A5220710E83009B
:10002000F00E700E0900831603130E309F0083122A
:10003000031341309F00831603138030870083161B
:1000400003131930990083160313043098008312A8
:10005000031380309800831203130030F4008312DE
:100060000313313090000030F30057208312031344
:100070008313213084000C1E3B2800089900840A59
:10008000F40B3B2875288316031301308C000800FD
:100090008316031340308C000800831603131030BE
:1000A0008C00080083120313613099000800831349
:1000B0002130840054308000840A65308000840A36
:1000C00073308000840A74308000840A0D30800010
:1000D000840A0A3080000630F400080083120313FB
:0E00E0001F151F1971281E08F2000000752858
:02400E00393F38
:00000001FF
