:020000040000FA
:0800000000008A110A126428B5
:08000800F000030EF100831269
:1000100003138C1A8A110A12302000000000831288
:1000200003130C1A8A110A125F20710E8300F00E5E
:04003000700E090045
:040034000034003460
:080038008316031380308700DA
:100040008316031319309900831603132430980084
:10005000831203139030980083120313F4010800F5
:10006000831203131A08F6007608413A03194C2844
:100070007608613A03194C287608523A0319522837
:100080007608723A031952287608443A0319582818
:100090007608643A031958284130F5008316031393
:1000A0000C145E285230F500831603130C105E28E2
:1000B0007508523A03198A110A12A6200800831201
:0800C0000313613099000800F0
:0800C8008A110A121C208A11A2
:1000D0000A1291208A110A12AD2083132130840064
:1000E00054308000840A65308000840A73308000B8
:1000F000840A74308000840A0D308000840A0A303B
:1001000080000630F400831203138313213084002F
:100110000C1E882800089900840AF40B8828000027
:020120008F2826
:0E012200831603130E309F0083120313413027
:100130009F000800831603130C1608008312031394
:100140001F151F19A1281E08F200080083120313AF
:0A0150001F15831603130C17080097
:06015A0083120313313093
:0C0160009000F3018A110A12A62008008A
:02400E00393F38
:00000001FF
