:020000040000FA
:0800000000008A110A124129D7
:08000800F000030EF100831269
:1000100003138C1E8A110A1210288A110A126420F6
:10002000831203130C1C8A110A121A280C108A114D
:100030000A127021831203130C1F8A110A1224283A
:100040000C138A110A121A21831203130C1E8A112F
:100050000A122D288A110A12A820710E8300F00EB0
:04006000700E090015
:0C006400013400348334013420340034B3
:040070000F34003415
:0C007400831603138030870083160313EB
:100080001930990083160313243098008312031348
:1000900090309800080083120313831320308400EB
:1000A0000008003A03198A110A1260280C1E8A11EE
:1000B0000A12562800089900840A8A110A12502848
:1000C0008313273084000800831203131A08F500F5
:1000D0007508413A03198A110A128C287508613A89
:1000E00003198A110A128C287508523A03198A11C9
:1000F0000A1297287508723A03198A110A1297286A
:100100007508443A03198A110A129F287508643A3F
:1001100003198A110A129F284130F4008316031331
:100120000C1483120313F3018A110A12A728523008
:10013000F400831603130C108A110A12A7287408FE
:10014000523A03198A110A128A110A12362108003A
:1001500083130008003A03198A110A12B728831280
:10016000031300089900840A8A110A12BB28831617
:0801700003130C128C160800A9
:080178008A110A1232208312E1
:100180000313AF003320B000831203132F08300491
:10019000031DCB2810298A110A123420831203135D
:1001A000B1003520B2008A110A12362083120313DF
:1001B000B3003720B4008A110A12382083120313C7
:1001C000B5003920B600831203133508360403192D
:1001D00009298312031333088400F22832088A00A5
:1001E00031088200EE208313B408031D83178000BA
:1001F00083120313B10A0318B20A83120313B30A5A
:100200000318B40A83120313B5080319B603B50320
:10021000E32883120313AF080319B003AF03C42804
:020220000800D4
:0E022200831603130E309F0083120313413026
:100230009F0008008A110A128A110A123D218A11B0
:100240000A128A110A123F21831327308400831671
:1002500003138C120C160800831203131F151F19A9
:100260008A110A122F291E08F200080083120313B4
:100270001F15831603130C17080000000800000068
:02028000080074
:0E0282008A110A128A110A12BC208A110A126D
:100290008A110A123A208A110A128A110A121121AD
:1002A0008A110A128A110A126B218A110A128A1102
:1002B0000A124B20831203130C100C138312031326
:1002C0000B17831603138C16831203138B1700006E
:0602D0008A110A126729E1
:0A02D6008312031331309000F3018E
:1002E000831203137308013A03198A110A127C2935
:1002F000F30A8A110A128229F3018A110A128A1159
:060300000A12362108007C
:0A03060054344534533454340D349C
:100310000A34003458342C345834203456340D34D4
:040320000A34003467
:02400E00393F38
:00000001FF
